{
  "_format": "hh-sol-artifact-1",
  "contractName": "AutoRideFare",
  "sourceName": "auto-rickshaw-contracts/contracts/AutoRideFare.sol",
  "abi": [
    {
      "inputs": [],
      "stateMutability": "nonpayable",
      "type": "constructor"
    },
    {
      "anonymous": false,
      "inputs": [
        {
          "indexed": false,
          "internalType": "uint256",
          "name": "baseFare",
          "type": "uint256"
        },
        {
          "indexed": false,
          "internalType": "uint256",
          "name": "perKmRate",
          "type": "uint256"
        }
      ],
      "name": "FareRatesUpdated",
      "type": "event"
    },
    {
      "anonymous": false,
      "inputs": [
        {
          "indexed": true,
          "internalType": "uint256",
          "name": "rideId",
          "type": "uint256"
        },
        {
          "indexed": true,
          "internalType": "address",
          "name": "driver",
          "type": "address"
        },
        {
          "indexed": false,
          "internalType": "uint256",
          "name": "amount",
          "type": "uint256"
        }
      ],
      "name": "PaymentReleased",
      "type": "event"
    },
    {
      "anonymous": false,
      "inputs": [
        {
          "indexed": true,
          "internalType": "uint256",
          "name": "rideId",
          "type": "uint256"
        },
        {
          "indexed": true,
          "internalType": "address",
          "name": "driver",
          "type": "address"
        }
      ],
      "name": "RideAccepted",
      "type": "event"
    },
    {
      "anonymous": false,
      "inputs": [
        {
          "indexed": true,
          "internalType": "uint256",
          "name": "rideId",
          "type": "uint256"
        },
        {
          "indexed": false,
          "internalType": "uint256",
          "name": "fare",
          "type": "uint256"
        }
      ],
      "name": "RideCompleted",
      "type": "event"
    },
    {
      "anonymous": false,
      "inputs": [
        {
          "indexed": true,
          "internalType": "uint256",
          "name": "rideId",
          "type": "uint256"
        },
        {
          "indexed": false,
          "internalType": "uint8",
          "name": "rating",
          "type": "uint8"
        }
      ],
      "name": "RideRated",
      "type": "event"
    },
    {
      "anonymous": false,
      "inputs": [
        {
          "indexed": true,
          "internalType": "uint256",
          "name": "rideId",
          "type": "uint256"
        },
        {
          "indexed": true,
          "internalType": "address",
          "name": "passenger",
          "type": "address"
        },
        {
          "indexed": false,
          "internalType": "uint256",
          "name": "fare",
          "type": "uint256"
        }
      ],
      "name": "RideRequested",
      "type": "event"
    },
    {
      "anonymous": false,
      "inputs": [
        {
          "indexed": true,
          "internalType": "uint256",
          "name": "rideId",
          "type": "uint256"
        }
      ],
      "name": "RideStarted",
      "type": "event"
    },
    {
      "inputs": [
        {
          "internalType": "uint256",
          "name": "_rideId",
          "type": "uint256"
        }
      ],
      "name": "acceptRide",
      "outputs": [],
      "stateMutability": "nonpayable",
      "type": "function"
    },
    {
      "inputs": [],
      "name": "baseFare",
      "outputs": [
        {
          "internalType": "uint256",
          "name": "",
          "type": "uint256"
        }
      ],
      "stateMutability": "view",
      "type": "function"
    },
    {
      "inputs": [
        {
          "internalType": "uint256",
          "name": "_distanceInKm",
          "type": "uint256"
        }
      ],
      "name": "calculateFare",
      "outputs": [
        {
          "internalType": "uint256",
          "name": "",
          "type": "uint256"
        }
      ],
      "stateMutability": "view",
      "type": "function"
    },
    {
      "inputs": [
        {
          "internalType": "uint256",
          "name": "_rideId",
          "type": "uint256"
        }
      ],
      "name": "completeRide",
      "outputs": [],
      "stateMutability": "nonpayable",
      "type": "function"
    },
    {
      "inputs": [
        {
          "internalType": "address",
          "name": "",
          "type": "address"
        },
        {
          "internalType": "uint256",
          "name": "",
          "type": "uint256"
        }
      ],
      "name": "driverRides",
      "outputs": [
        {
          "internalType": "uint256",
          "name": "",
          "type": "uint256"
        }
      ],
      "stateMutability": "view",
      "type": "function"
    },
    {
      "inputs": [
        {
          "internalType": "uint256",
          "name": "",
          "type": "uint256"
        }
      ],
      "name": "escrowBalance",
      "outputs": [
        {
          "internalType": "uint256",
          "name": "",
          "type": "uint256"
        }
      ],
      "stateMutability": "view",
      "type": "function"
    },
    {
      "inputs": [
        {
          "internalType": "address",
          "name": "_driver",
          "type": "address"
        }
      ],
      "name": "getDriverRides",
      "outputs": [
        {
          "internalType": "uint256[]",
          "name": "",
          "type": "uint256[]"
        }
      ],
      "stateMutability": "view",
      "type": "function"
    },
    {
      "inputs": [
        {
          "internalType": "address",
          "name": "_passenger",
          "type": "address"
        }
      ],
      "name": "getPassengerRides",
      "outputs": [
        {
          "internalType": "uint256[]",
          "name": "",
          "type": "uint256[]"
        }
      ],
      "stateMutability": "view",
      "type": "function"
    },
    {
      "inputs": [
        {
          "internalType": "uint256",
          "name": "_rideId",
          "type": "uint256"
        }
      ],
      "name": "getRideDetails",
      "outputs": [
        {
          "components": [
            {
              "internalType": "uint256",
              "name": "rideId",
              "type": "uint256"
            },
            {
              "internalType": "address",
              "name": "passenger",
              "type": "address"
            },
            {
              "internalType": "address",
              "name": "driver",
              "type": "address"
            },
            {
              "internalType": "string",
              "name": "pickupLocation",
              "type": "string"
            },
            {
              "internalType": "string",
              "name": "dropLocation",
              "type": "string"
            },
            {
              "internalType": "uint256",
              "name": "distance",
              "type": "uint256"
            },
            {
              "internalType": "uint256",
              "name": "fare",
              "type": "uint256"
            },
            {
              "internalType": "uint256",
              "name": "timestamp",
              "type": "uint256"
            },
            {
              "internalType": "enum AutoRideFare.RideStatus",
              "name": "status",
              "type": "uint8"
            },
            {
              "internalType": "uint8",
              "name": "rating",
              "type": "uint8"
            },
            {
              "internalType": "bool",
              "name": "exists",
              "type": "bool"
            }
          ],
          "internalType": "struct AutoRideFare.Ride",
          "name": "",
          "type": "tuple"
        }
      ],
      "stateMutability": "view",
      "type": "function"
    },
    {
      "inputs": [],
      "name": "owner",
      "outputs": [
        {
          "internalType": "address",
          "name": "",
          "type": "address"
        }
      ],
      "stateMutability": "view",
      "type": "function"
    },
    {
      "inputs": [
        {
          "internalType": "address",
          "name": "",
          "type": "address"
        },
        {
          "internalType": "uint256",
          "name": "",
          "type": "uint256"
        }
      ],
      "name": "passengerRides",
      "outputs": [
        {
          "internalType": "uint256",
          "name": "",
          "type": "uint256"
        }
      ],
      "stateMutability": "view",
      "type": "function"
    },
    {
      "inputs": [],
      "name": "perKmRate",
      "outputs": [
        {
          "internalType": "uint256",
          "name": "",
          "type": "uint256"
        }
      ],
      "stateMutability": "view",
      "type": "function"
    },
    {
      "inputs": [
        {
          "internalType": "uint256",
          "name": "_rideId",
          "type": "uint256"
        },
        {
          "internalType": "uint8",
          "name": "_rating",
          "type": "uint8"
        }
      ],
      "name": "rateRide",
      "outputs": [],
      "stateMutability": "nonpayable",
      "type": "function"
    },
    {
      "inputs": [
        {
          "internalType": "string",
          "name": "_pickup",
          "type": "string"
        },
        {
          "internalType": "string",
          "name": "_drop",
          "type": "string"
        },
        {
          "internalType": "uint256",
          "name": "_distanceInKm",
          "type": "uint256"
        }
      ],
      "name": "requestRide",
      "outputs": [
        {
          "internalType": "uint256",
          "name": "",
          "type": "uint256"
        }
      ],
      "stateMutability": "payable",
      "type": "function"
    },
    {
      "inputs": [],
      "name": "rideCounter",
      "outputs": [
        {
          "internalType": "uint256",
          "name": "",
          "type": "uint256"
        }
      ],
      "stateMutability": "view",
      "type": "function"
    },
    {
      "inputs": [
        {
          "internalType": "uint256",
          "name": "",
          "type": "uint256"
        }
      ],
      "name": "rides",
      "outputs": [
        {
          "internalType": "uint256",
          "name": "rideId",
          "type": "uint256"
        },
        {
          "internalType": "address",
          "name": "passenger",
          "type": "address"
        },
        {
          "internalType": "address",
          "name": "driver",
          "type": "address"
        },
        {
          "internalType": "string",
          "name": "pickupLocation",
          "type": "string"
        },
        {
          "internalType": "string",
          "name": "dropLocation",
          "type": "string"
        },
        {
          "internalType": "uint256",
          "name": "distance",
          "type": "uint256"
        },
        {
          "internalType": "uint256",
          "name": "fare",
          "type": "uint256"
        },
        {
          "internalType": "uint256",
          "name": "timestamp",
          "type": "uint256"
        },
        {
          "internalType": "enum AutoRideFare.RideStatus",
          "name": "status",
          "type": "uint8"
        },
        {
          "internalType": "uint8",
          "name": "rating",
          "type": "uint8"
        },
        {
          "internalType": "bool",
          "name": "exists",
          "type": "bool"
        }
      ],
      "stateMutability": "view",
      "type": "function"
    },
    {
      "inputs": [
        {
          "internalType": "uint256",
          "name": "_rideId",
          "type": "uint256"
        }
      ],
      "name": "startRide",
      "outputs": [],
      "stateMutability": "nonpayable",
      "type": "function"
    },
    {
      "inputs": [
        {
          "internalType": "uint256",
          "name": "_baseFare",
          "type": "uint256"
        },
        {
          "internalType": "uint256",
          "name": "_perKmRate",
          "type": "uint256"
        }
      ],
      "name": "updateFareRates",
      "outputs": [],
      "stateMutability": "nonpayable",
      "type": "function"
    },
    {
      "inputs": [],
      "name": "waitingChargePerMinute",
      "outputs": [
        {
          "internalType": "uint256",
          "name": "",
          "type": "uint256"
        }
      ],
      "stateMutability": "view",
      "type": "function"
    },
    {
      "stateMutability": "payable",
      "type": "receive"
    }
  ],
  "bytecode": "0x60806040526019600155600f60025560026003556000600455348015602357600080fd5b50336000806101000a81548173ffffffffffffffffffffffffffffffffffffffff021916908373ffffffffffffffffffffffffffffffffffffffff160217905550612ee8806100736000396000f3fe6080604052600436106101185760003560e01c80638da5cb5b116100a0578063c416dd0b11610064578063c416dd0b1461042e578063c51562cb14610457578063d10bb9b514610480578063d1c593cf146104bd578063e9c14b1e146104fa57610158565b80638da5cb5b14610333578063b079dae11461035e578063b10fefc01461039b578063b1f473a0146103c6578063bb099ee3146103f157610158565b806322fbce72116100e757806322fbce721461022b5780635205f112146102685780635a4d1b2e146102af57806360fe4716146102df5780637207023d1461030857610158565b80630b506b011461015d5780630e8062b2146101885780631beda1d1146101c55780631d6be93c146101ee57610158565b36610158576040517f08c379a000000000000000000000000000000000000000000000000000000000815260040161014f90611cb3565b60405180910390fd5b600080fd5b34801561016957600080fd5b50610172610523565b60405161017f9190611cec565b60405180910390f35b34801561019457600080fd5b506101af60048036038101906101aa9190611d47565b610529565b6040516101bc9190611cec565b60405180910390f35b3480156101d157600080fd5b506101ec60048036038101906101e79190611dad565b61054d565b005b3480156101fa57600080fd5b5061021560048036038101906102109190611d47565b610798565b6040516102229190612064565b60405180910390f35b34801561023757600080fd5b50610252600480360381019061024d91906120b2565b610a96565b60405161025f9190611cec565b60405180910390f35b34801561027457600080fd5b5061028f600480360381019061028a9190611d47565b610ac7565b6040516102a69b9a99989796959493929190612167565b60405180910390f35b6102c960048036038101906102c49190612355565b610c98565b6040516102d69190611cec565b60405180910390f35b3480156102eb57600080fd5b50610306600480360381019061030191906123e0565b61103b565b005b34801561031457600080fd5b5061031d611114565b60405161032a9190611cec565b60405180910390f35b34801561033f57600080fd5b5061034861111a565b6040516103559190612420565b60405180910390f35b34801561036a57600080fd5b50610385600480360381019061038091906120b2565b61113e565b6040516103929190611cec565b60405180910390f35b3480156103a757600080fd5b506103b061116f565b6040516103bd9190611cec565b60405180910390f35b3480156103d257600080fd5b506103db611175565b6040516103e89190611cec565b60405180910390f35b3480156103fd57600080fd5b5061041860048036038101906104139190611d47565b61117b565b6040516104259190611cec565b60405180910390f35b34801561043a57600080fd5b5061045560048036038101906104509190611d47565b611193565b005b34801561046357600080fd5b5061047e60048036038101906104799190611d47565b6113a3565b005b34801561048c57600080fd5b506104a760048036038101906104a2919061243b565b611648565b6040516104b49190612517565b60405180910390f35b3480156104c957600080fd5b506104e460048036038101906104df919061243b565b6116df565b6040516104f19190612517565b60405180910390f35b34801561050657600080fd5b50610521600480360381019061051c9190611d47565b611776565b005b60015481565b6000600254826105399190612568565b60015461054691906125aa565b9050919050565b816005600082815260200190815260200160002060080160029054906101000a900460ff166105b1576040517f08c379a00000000000000000000000000000000000000000000000000000000081526004016105a89061262a565b60405180910390fd5b823373ffffffffffffffffffffffffffffffffffffffff166005600083815260200190815260200160002060010160009054906101000a900473ffffffffffffffffffffffffffffffffffffffff1673ffffffffffffffffffffffffffffffffffffffff1614610656576040517f08c379a000000000000000000000000000000000000000000000000000000000815260040161064d90612696565b60405180910390fd5b60018360ff161015801561066e575060058360ff1611155b6106ad576040517f08c379a00000000000000000000000000000000000000000000000000000000081526004016106a490612702565b60405180910390fd5b6000600560008681526020019081526020016000209050600360048111156106d8576106d7611ecd565b5b8160080160009054906101000a900460ff1660048111156106fc576106fb611ecd565b5b1461073c576040517f08c379a00000000000000000000000000000000000000000000000000000000081526004016107339061276e565b60405180910390fd5b838160080160016101000a81548160ff021916908360ff160217905550847fbf33e9a7630d8e3b5ffe97cbc25e2758ba5b2284699c824c1fbe59de864bb60785604051610789919061278e565b60405180910390a25050505050565b6107a0611bb9565b816005600082815260200190815260200160002060080160029054906101000a900460ff16610804576040517f08c379a00000000000000000000000000000000000000000000000000000000081526004016107fb9061262a565b60405180910390fd5b6005600084815260200190815260200160002060405180610160016040529081600082015481526020016001820160009054906101000a900473ffffffffffffffffffffffffffffffffffffffff1673ffffffffffffffffffffffffffffffffffffffff1673ffffffffffffffffffffffffffffffffffffffff1681526020016002820160009054906101000a900473ffffffffffffffffffffffffffffffffffffffff1673ffffffffffffffffffffffffffffffffffffffff1673ffffffffffffffffffffffffffffffffffffffff1681526020016003820180546108e9906127d8565b80601f0160208091040260200160405190810160405280929190818152602001828054610915906127d8565b80156109625780601f1061093757610100808354040283529160200191610962565b820191906000526020600020905b81548152906001019060200180831161094557829003601f168201915b5050505050815260200160048201805461097b906127d8565b80601f01602080910402602001604051908101604052809291908181526020018280546109a7906127d8565b80156109f45780601f106109c9576101008083540402835291602001916109f4565b820191906000526020600020905b8154815290600101906020018083116109d757829003601f168201915b505050505081526020016005820154815260200160068201548152602001600782015481526020016008820160009054906101000a900460ff166004811115610a4057610a3f611ecd565b5b6004811115610a5257610a51611ecd565b5b81526020016008820160019054906101000a900460ff1660ff1660ff1681526020016008820160029054906101000a900460ff161515151581525050915050919050565b60066020528160005260406000208181548110610ab257600080fd5b90600052602060002001600091509150505481565b60056020528060005260406000206000915090508060000154908060010160009054906101000a900473ffffffffffffffffffffffffffffffffffffffff16908060020160009054906101000a900473ffffffffffffffffffffffffffffffffffffffff1690806003018054610b3c906127d8565b80601f0160208091040260200160405190810160405280929190818152602001828054610b68906127d8565b8015610bb55780601f10610b8a57610100808354040283529160200191610bb5565b820191906000526020600020905b815481529060010190602001808311610b9857829003601f168201915b505050505090806004018054610bca906127d8565b80601f0160208091040260200160405190810160405280929190818152602001828054610bf6906127d8565b8015610c435780601f10610c1857610100808354040283529160200191610c43565b820191906000526020600020905b815481529060010190602001808311610c2657829003601f168201915b5050505050908060050154908060060154908060070154908060080160009054906101000a900460ff16908060080160019054906101000a900460ff16908060080160029054906101000a900460ff1690508b565b600080610ca483610529565b905080341015610ce9576040517f08c379a0000000000000000000000000000000000000000000000000000000008152600401610ce090612855565b60405180910390fd5b60046000815480929190610cfc90612875565b9190505550600060045490506040518061016001604052808281526020013373ffffffffffffffffffffffffffffffffffffffff168152602001600073ffffffffffffffffffffffffffffffffffffffff16815260200187815260200186815260200185815260200183815260200142815260200160006004811115610d8557610d84611ecd565b5b8152602001600060ff16815260200160011515815250600560008381526020019081526020016000206000820151816000015560208201518160010160006101000a81548173ffffffffffffffffffffffffffffffffffffffff021916908373ffffffffffffffffffffffffffffffffffffffff16021790555060408201518160020160006101000a81548173ffffffffffffffffffffffffffffffffffffffff021916908373ffffffffffffffffffffffffffffffffffffffff1602179055506060820151816003019081610e5b9190612a69565b506080820151816004019081610e719190612a69565b5060a0820151816005015560c0820151816006015560e082015181600701556101008201518160080160006101000a81548160ff02191690836004811115610ebc57610ebb611ecd565b5b02179055506101208201518160080160016101000a81548160ff021916908360ff1602179055506101408201518160080160026101000a81548160ff021916908315150217905550905050816008600083815260200190815260200160002081905550600660003373ffffffffffffffffffffffffffffffffffffffff1673ffffffffffffffffffffffffffffffffffffffff16815260200190815260200160002081908060018154018082558091505060019003906000526020600020016000909190919091505581341115610fe0573373ffffffffffffffffffffffffffffffffffffffff166108fc8334610fb39190612b3b565b9081150290604051600060405180830381858888f19350505050158015610fde573d6000803e3d6000fd5b505b3373ffffffffffffffffffffffffffffffffffffffff16817f54ae564e5bca6e1fe8b8da57b977869728091509f6fda4b7ca70f5f103196de4846040516110279190611cec565b60405180910390a380925050509392505050565b60008054906101000a900473ffffffffffffffffffffffffffffffffffffffff1673ffffffffffffffffffffffffffffffffffffffff163373ffffffffffffffffffffffffffffffffffffffff16146110c9576040517f08c379a00000000000000000000000000000000000000000000000000000000081526004016110c090612be1565b60405180910390fd5b81600181905550806002819055507ffefb71be85f67a7e526b802c77f34e822e937d8374bab67e425f4be844eae13d8282604051611108929190612c01565b60405180910390a15050565b60025481565b60008054906101000a900473ffffffffffffffffffffffffffffffffffffffff1681565b6007602052816000526040600020818154811061115a57600080fd5b90600052602060002001600091509150505481565b60045481565b60035481565b60086020528060005260406000206000915090505481565b806005600082815260200190815260200160002060080160029054906101000a900460ff166111f7576040517f08c379a00000000000000000000000000000000000000000000000000000000081526004016111ee9061262a565b60405180910390fd5b813373ffffffffffffffffffffffffffffffffffffffff166005600083815260200190815260200160002060020160009054906101000a900473ffffffffffffffffffffffffffffffffffffffff1673ffffffffffffffffffffffffffffffffffffffff161461129c576040517f08c379a000000000000000000000000000000000000000000000000000000000815260040161129390612c76565b60405180910390fd5b6000600560008581526020019081526020016000209050600260048111156112c7576112c6611ecd565b5b8160080160009054906101000a900460ff1660048111156112eb576112ea611ecd565b5b1461132b576040517f08c379a000000000000000000000000000000000000000000000000000000000815260040161132290612ce2565b60405180910390fd5b60038160080160006101000a81548160ff0219169083600481111561135357611352611ecd565b5b0217905550837ff304fdf4ab42d89945d17e18acbb7ceb5bd172be70a8ff8c9f055579a4eda101826006015460405161138c9190611cec565b60405180910390a261139d8461196e565b50505050565b806005600082815260200190815260200160002060080160029054906101000a900460ff16611407576040517f08c379a00000000000000000000000000000000000000000000000000000000081526004016113fe9061262a565b60405180910390fd5b60006005600084815260200190815260200160002090506000600481111561143257611431611ecd565b5b8160080160009054906101000a900460ff16600481111561145657611455611ecd565b5b14611496576040517f08c379a000000000000000000000000000000000000000000000000000000000815260040161148d90612d4e565b60405180910390fd5b600073ffffffffffffffffffffffffffffffffffffffff168160020160009054906101000a900473ffffffffffffffffffffffffffffffffffffffff1673ffffffffffffffffffffffffffffffffffffffff1614611529576040517f08c379a000000000000000000000000000000000000000000000000000000000815260040161152090612dba565b60405180910390fd5b338160020160006101000a81548173ffffffffffffffffffffffffffffffffffffffff021916908373ffffffffffffffffffffffffffffffffffffffff16021790555060018160080160006101000a81548160ff0219169083600481111561159457611593611ecd565b5b0217905550600760003373ffffffffffffffffffffffffffffffffffffffff1673ffffffffffffffffffffffffffffffffffffffff1681526020019081526020016000208390806001815401808255809150506001900390600052602060002001600090919091909150553373ffffffffffffffffffffffffffffffffffffffff16837fcb890c33fd108e736800f548e422bb587b58384dea0bbc2849e4b904ce455bbc60405160405180910390a3505050565b6060600760008373ffffffffffffffffffffffffffffffffffffffff1673ffffffffffffffffffffffffffffffffffffffff1681526020019081526020016000208054806020026020016040519081016040528092919081815260200182805480156116d357602002820191906000526020600020905b8154815260200190600101908083116116bf575b50505050509050919050565b6060600660008373ffffffffffffffffffffffffffffffffffffffff1673ffffffffffffffffffffffffffffffffffffffff16815260200190815260200160002080548060200260200160405190810160405280929190818152602001828054801561176a57602002820191906000526020600020905b815481526020019060010190808311611756575b50505050509050919050565b806005600082815260200190815260200160002060080160029054906101000a900460ff166117da576040517f08c379a00000000000000000000000000000000000000000000000000000000081526004016117d19061262a565b60405180910390fd5b813373ffffffffffffffffffffffffffffffffffffffff166005600083815260200190815260200160002060020160009054906101000a900473ffffffffffffffffffffffffffffffffffffffff1673ffffffffffffffffffffffffffffffffffffffff161461187f576040517f08c379a000000000000000000000000000000000000000000000000000000000815260040161187690612c76565b60405180910390fd5b6000600560008581526020019081526020016000209050600160048111156118aa576118a9611ecd565b5b8160080160009054906101000a900460ff1660048111156118ce576118cd611ecd565b5b1461190e576040517f08c379a000000000000000000000000000000000000000000000000000000000815260040161190590612e26565b60405180910390fd5b60028160080160006101000a81548160ff0219169083600481111561193657611935611ecd565b5b0217905550837f1caef5aba80487f3eb64526a934f8250dd2591d249cd4f14756041c0ff93607d60405160405180910390a250505050565b806005600082815260200190815260200160002060080160029054906101000a900460ff166119d2576040517f08c379a00000000000000000000000000000000000000000000000000000000081526004016119c99061262a565b60405180910390fd5b6000600560008481526020019081526020016000209050600360048111156119fd576119fc611ecd565b5b8160080160009054906101000a900460ff166004811115611a2157611a20611ecd565b5b14611a61576040517f08c379a0000000000000000000000000000000000000000000000000000000008152600401611a589061276e565b60405180910390fd5b60006008600085815260200190815260200160002054905060008111611abc576040517f08c379a0000000000000000000000000000000000000000000000000000000008152600401611ab390612e92565b60405180910390fd5b600060086000868152602001908152602001600020819055508160020160009054906101000a900473ffffffffffffffffffffffffffffffffffffffff1673ffffffffffffffffffffffffffffffffffffffff166108fc829081150290604051600060405180830381858888f19350505050158015611b3f573d6000803e3d6000fd5b508160020160009054906101000a900473ffffffffffffffffffffffffffffffffffffffff1673ffffffffffffffffffffffffffffffffffffffff16847f21d71db5be59bb9fa133895586b7404307dd33fb93b16db09dc6f1d9d7d231b083604051611bab9190611cec565b60405180910390a350505050565b60405180610160016040528060008152602001600073ffffffffffffffffffffffffffffffffffffffff168152602001600073ffffffffffffffffffffffffffffffffffffffff168152602001606081526020016060815260200160008152602001600081526020016000815260200160006004811115611c3d57611c3c611ecd565b5b8152602001600060ff1681526020016000151581525090565b600082825260208201905092915050565b7f446972656374207061796d656e7473206e6f7420616363657074656400000000600082015250565b6000611c9d601c83611c56565b9150611ca882611c67565b602082019050919050565b60006020820190508181036000830152611ccc81611c90565b9050919050565b6000819050919050565b611ce681611cd3565b82525050565b6000602082019050611d016000830184611cdd565b92915050565b6000604051905090565b600080fd5b600080fd5b611d2481611cd3565b8114611d2f57600080fd5b50565b600081359050611d4181611d1b565b92915050565b600060208284031215611d5d57611d5c611d11565b5b6000611d6b84828501611d32565b91505092915050565b600060ff82169050919050565b611d8a81611d74565b8114611d9557600080fd5b50565b600081359050611da781611d81565b92915050565b60008060408385031215611dc457611dc3611d11565b5b6000611dd285828601611d32565b9250506020611de385828601611d98565b9150509250929050565b611df681611cd3565b82525050565b600073ffffffffffffffffffffffffffffffffffffffff82169050919050565b6000611e2782611dfc565b9050919050565b611e3781611e1c565b82525050565b600081519050919050565b600082825260208201905092915050565b60005b83811015611e77578082015181840152602081019050611e5c565b60008484015250505050565b6000601f19601f8301169050919050565b6000611e9f82611e3d565b611ea98185611e48565b9350611eb9818560208601611e59565b611ec281611e83565b840191505092915050565b7f4e487b7100000000000000000000000000000000000000000000000000000000600052602160045260246000fd5b60058110611f0d57611f0c611ecd565b5b50565b6000819050611f1e82611efc565b919050565b6000611f2e82611f10565b9050919050565b611f3e81611f23565b82525050565b611f4d81611d74565b82525050565b60008115159050919050565b611f6881611f53565b82525050565b600061016083016000830151611f876000860182611ded565b506020830151611f9a6020860182611e2e565b506040830151611fad6040860182611e2e565b5060608301518482036060860152611fc58282611e94565b91505060808301518482036080860152611fdf8282611e94565b91505060a0830151611ff460a0860182611ded565b5060c083015161200760c0860182611ded565b5060e083015161201a60e0860182611ded565b5061010083015161202f610100860182611f35565b50610120830151612044610120860182611f44565b50610140830151612059610140860182611f5f565b508091505092915050565b6000602082019050818103600083015261207e8184611f6e565b905092915050565b61208f81611e1c565b811461209a57600080fd5b50565b6000813590506120ac81612086565b92915050565b600080604083850312156120c9576120c8611d11565b5b60006120d78582860161209d565b92505060206120e885828601611d32565b9150509250929050565b6120fb81611e1c565b82525050565b600061210c82611e3d565b6121168185611c56565b9350612126818560208601611e59565b61212f81611e83565b840191505092915050565b61214381611f23565b82525050565b61215281611d74565b82525050565b61216181611f53565b82525050565b60006101608201905061217d600083018e611cdd565b61218a602083018d6120f2565b612197604083018c6120f2565b81810360608301526121a9818b612101565b905081810360808301526121bd818a612101565b90506121cc60a0830189611cdd565b6121d960c0830188611cdd565b6121e660e0830187611cdd565b6121f461010083018661213a565b612202610120830185612149565b612210610140830184612158565b9c9b505050505050505050505050565b600080fd5b600080fd5b7f4e487b7100000000000000000000000000000000000000000000000000000000600052604160045260246000fd5b61226282611e83565b810181811067ffffffffffffffff821117156122815761228061222a565b5b80604052505050565b6000612294611d07565b90506122a08282612259565b919050565b600067ffffffffffffffff8211156122c0576122bf61222a565b5b6122c982611e83565b9050602081019050919050565b82818337600083830152505050565b60006122f86122f3846122a5565b61228a565b90508281526020810184848401111561231457612313612225565b5b61231f8482856122d6565b509392505050565b600082601f83011261233c5761233b612220565b5b813561234c8482602086016122e5565b91505092915050565b60008060006060848603121561236e5761236d611d11565b5b600084013567ffffffffffffffff81111561238c5761238b611d16565b5b61239886828701612327565b935050602084013567ffffffffffffffff8111156123b9576123b8611d16565b5b6123c586828701612327565b92505060406123d686828701611d32565b9150509250925092565b600080604083850312156123f7576123f6611d11565b5b600061240585828601611d32565b925050602061241685828601611d32565b9150509250929050565b600060208201905061243560008301846120f2565b92915050565b60006020828403121561245157612450611d11565b5b600061245f8482850161209d565b91505092915050565b600081519050919050565b600082825260208201905092915050565b6000819050602082019050919050565b60006124a08383611ded565b60208301905092915050565b6000602082019050919050565b60006124c482612468565b6124ce8185612473565b93506124d983612484565b8060005b8381101561250a5781516124f18882612494565b97506124fc836124ac565b9250506001810190506124dd565b5085935050505092915050565b6000602082019050818103600083015261253181846124b9565b905092915050565b7f4e487b7100000000000000000000000000000000000000000000000000000000600052601160045260246000fd5b600061257382611cd3565b915061257e83611cd3565b925082820261258c81611cd3565b915082820484148315176125a3576125a2612539565b5b5092915050565b60006125b582611cd3565b91506125c083611cd3565b92508282019050808211156125d8576125d7612539565b5b92915050565b7f5269646520646f6573206e6f7420657869737400000000000000000000000000600082015250565b6000612614601383611c56565b915061261f826125de565b602082019050919050565b6000602082019050818103600083015261264381612607565b9050919050565b7f4f6e6c792070617373656e6765722063616e2063616c6c207468697300000000600082015250565b6000612680601c83611c56565b915061268b8261264a565b602082019050919050565b600060208201905081810360008301526126af81612673565b9050919050565b7f526174696e67206d757374206265206265747765656e203120616e6420350000600082015250565b60006126ec601e83611c56565b91506126f7826126b6565b602082019050919050565b6000602082019050818103600083015261271b816126df565b9050919050565b7f52696465206e6f7420636f6d706c657465640000000000000000000000000000600082015250565b6000612758601283611c56565b915061276382612722565b602082019050919050565b600060208201905081810360008301526127878161274b565b9050919050565b60006020820190506127a36000830184612149565b92915050565b7f4e487b7100000000000000000000000000000000000000000000000000000000600052602260045260246000fd5b600060028204905060018216806127f057607f821691505b602082108103612803576128026127a9565b5b50919050565b7f496e73756666696369656e74207061796d656e7420666f722066617265000000600082015250565b600061283f601d83611c56565b915061284a82612809565b602082019050919050565b6000602082019050818103600083015261286e81612832565b9050919050565b600061288082611cd3565b91507fffffffffffffffffffffffffffffffffffffffffffffffffffffffffffffffff82036128b2576128b1612539565b5b600182019050919050565b60008190508160005260206000209050919050565b60006020601f8301049050919050565b600082821b905092915050565b60006008830261291f7fffffffffffffffffffffffffffffffffffffffffffffffffffffffffffffffff826128e2565b61292986836128e2565b95508019841693508086168417925050509392505050565b6000819050919050565b600061296661296161295c84611cd3565b612941565b611cd3565b9050919050565b6000819050919050565b6129808361294b565b61299461298c8261296d565b8484546128ef565b825550505050565b600090565b6129a961299c565b6129b4818484612977565b505050565b5b818110156129d8576129cd6000826129a1565b6001810190506129ba565b5050565b601f821115612a1d576129ee816128bd565b6129f7846128d2565b81016020851015612a06578190505b612a1a612a12856128d2565b8301826129b9565b50505b505050565b600082821c905092915050565b6000612a4060001984600802612a22565b1980831691505092915050565b6000612a598383612a2f565b9150826002028217905092915050565b612a7282611e3d565b67ffffffffffffffff811115612a8b57612a8a61222a565b5b612a9582546127d8565b612aa08282856129dc565b600060209050601f831160018114612ad35760008415612ac1578287015190505b612acb8582612a4d565b865550612b33565b601f198416612ae1866128bd565b60005b82811015612b0957848901518255600182019150602085019450602081019050612ae4565b86831015612b265784890151612b22601f891682612a2f565b8355505b6001600288020188555050505b505050505050565b6000612b4682611cd3565b9150612b5183611cd3565b9250828203905081811115612b6957612b68612539565b5b92915050565b7f4f6e6c79206f776e65722063616e2063616c6c20746869732066756e6374696f60008201527f6e00000000000000000000000000000000000000000000000000000000000000602082015250565b6000612bcb602183611c56565b9150612bd682612b6f565b604082019050919050565b60006020820190508181036000830152612bfa81612bbe565b9050919050565b6000604082019050612c166000830185611cdd565b612c236020830184611cdd565b9392505050565b7f4f6e6c79206472697665722063616e2063616c6c207468697300000000000000600082015250565b6000612c60601983611c56565b9150612c6b82612c2a565b602082019050919050565b60006020820190508181036000830152612c8f81612c53565b9050919050565b7f52696465206e6f7420696e2070726f6772657373000000000000000000000000600082015250565b6000612ccc601483611c56565b9150612cd782612c96565b602082019050919050565b60006020820190508181036000830152612cfb81612cbf565b9050919050565b7f52696465206e6f7420617661696c61626c650000000000000000000000000000600082015250565b6000612d38601283611c56565b9150612d4382612d02565b602082019050919050565b60006020820190508181036000830152612d6781612d2b565b9050919050565b7f5269646520616c72656164792061636365707465640000000000000000000000600082015250565b6000612da4601583611c56565b9150612daf82612d6e565b602082019050919050565b60006020820190508181036000830152612dd381612d97565b9050919050565b7f43616e6e6f742073746172742072696465000000000000000000000000000000600082015250565b6000612e10601183611c56565b9150612e1b82612dda565b602082019050919050565b60006020820190508181036000830152612e3f81612e03565b9050919050565b7f4e6f20657363726f772062616c616e6365000000000000000000000000000000600082015250565b6000612e7c601183611c56565b9150612e8782612e46565b602082019050919050565b60006020820190508181036000830152612eab81612e6f565b905091905056fea264697066735822122085c92fcd6008fbe9c55f1ec01e0d0aaec3b4d51f7fbced6d8e764ad6ccbd094864736f6c634300081c0033",
  "linkReferences": {},
  "deployedLinkReferences": {}
}